{
  "contractName": "CampaignContract",
  "abi": [
    {
      "constant": false,
      "inputs": [
        {
          "name": "value",
          "type": "uint256"
        }
      ],
      "name": "removeFunds",
      "outputs": [],
      "payable": false,
      "stateMutability": "nonpayable",
      "type": "function"
    },
    {
      "constant": true,
      "inputs": [],
      "name": "decimals",
      "outputs": [
        {
          "name": "",
          "type": "uint256"
        }
      ],
      "payable": false,
      "stateMutability": "view",
      "type": "function"
    },
    {
      "constant": true,
      "inputs": [],
      "name": "endTime",
      "outputs": [
        {
          "name": "",
          "type": "uint256"
        }
      ],
      "payable": false,
      "stateMutability": "view",
      "type": "function"
    },
    {
      "constant": false,
      "inputs": [
        {
          "name": "influencer",
          "type": "address"
        },
        {
          "name": "shopper",
          "type": "address"
        },
        {
          "name": "value",
          "type": "uint256"
        }
      ],
      "name": "verifyPurchase",
      "outputs": [
        {
          "name": "",
          "type": "uint256"
        }
      ],
      "payable": false,
      "stateMutability": "nonpayable",
      "type": "function"
    },
    {
      "constant": true,
      "inputs": [],
      "name": "shopperShare",
      "outputs": [
        {
          "name": "",
          "type": "uint256"
        }
      ],
      "payable": false,
      "stateMutability": "view",
      "type": "function"
    },
    {
      "constant": true,
      "inputs": [],
      "name": "rewardToValue",
      "outputs": [
        {
          "name": "",
          "type": "uint256"
        }
      ],
      "payable": false,
      "stateMutability": "view",
      "type": "function"
    },
    {
      "constant": true,
      "inputs": [],
      "name": "startTime",
      "outputs": [
        {
          "name": "",
          "type": "uint256"
        }
      ],
      "payable": false,
      "stateMutability": "view",
      "type": "function"
    },
    {
      "constant": true,
      "inputs": [],
      "name": "oracle",
      "outputs": [
        {
          "name": "",
          "type": "address"
        }
      ],
      "payable": false,
      "stateMutability": "view",
      "type": "function"
    },
    {
      "constant": true,
      "inputs": [],
      "name": "owner",
      "outputs": [
        {
          "name": "",
          "type": "address"
        }
      ],
      "payable": false,
      "stateMutability": "view",
      "type": "function"
    },
    {
      "constant": false,
      "inputs": [
        {
          "name": "value",
          "type": "uint256"
        }
      ],
      "name": "addFunds",
      "outputs": [],
      "payable": false,
      "stateMutability": "nonpayable",
      "type": "function"
    },
    {
      "constant": true,
      "inputs": [],
      "name": "influencerShare",
      "outputs": [
        {
          "name": "",
          "type": "uint256"
        }
      ],
      "payable": false,
      "stateMutability": "view",
      "type": "function"
    },
    {
      "constant": true,
      "inputs": [],
      "name": "totalBudget",
      "outputs": [
        {
          "name": "",
          "type": "uint256"
        }
      ],
      "payable": false,
      "stateMutability": "view",
      "type": "function"
    },
    {
      "constant": true,
      "inputs": [],
      "name": "oracleShare",
      "outputs": [
        {
          "name": "",
          "type": "uint256"
        }
      ],
      "payable": false,
      "stateMutability": "view",
      "type": "function"
    },
    {
      "constant": false,
      "inputs": [
        {
          "name": "newOwner",
          "type": "address"
        }
      ],
      "name": "transferOwnership",
      "outputs": [],
      "payable": false,
      "stateMutability": "nonpayable",
      "type": "function"
    },
    {
      "constant": true,
      "inputs": [],
      "name": "VERSION",
      "outputs": [
        {
          "name": "",
          "type": "string"
        }
      ],
      "payable": false,
      "stateMutability": "view",
      "type": "function"
    },
    {
      "inputs": [
        {
          "name": "_mCartToken",
          "type": "address"
        },
        {
          "name": "_startTime",
          "type": "uint256"
        },
        {
          "name": "_endTime",
          "type": "uint256"
        },
        {
          "name": "_rewardToValue",
          "type": "uint256"
        },
        {
          "name": "_influencerShare",
          "type": "uint256"
        },
        {
          "name": "_shopperShare",
          "type": "uint256"
        },
        {
          "name": "_oracleShare",
          "type": "uint256"
        },
        {
          "name": "_oracle",
          "type": "address"
        }
      ],
      "payable": false,
      "stateMutability": "nonpayable",
      "type": "constructor"
    },
    {
      "anonymous": false,
      "inputs": [
        {
          "indexed": true,
          "name": "previousOwner",
          "type": "address"
        },
        {
          "indexed": true,
          "name": "newOwner",
          "type": "address"
        }
      ],
      "name": "OwnershipTransferred",
      "type": "event"
    }
  ],
  "bytecode": "0x60606040526000600455341561001457600080fd5b60405161010080610de7833981016040528080519060200190919080519060200190919080519060200190919080519060200190919080519060200190919080519060200190919080519060200190919080519060200190919050506000336000806101000a81548173ffffffffffffffffffffffffffffffffffffffff021916908373ffffffffffffffffffffffffffffffffffffffff1602179055508787101515156100c157600080fd5b610100836100e586886101cc64010000000002610a93179091906401000000009004565b6101cc64010000000002610a93179091906401000000009004565b90506002600a0a811115151561011257fe5b88600160006101000a81548173ffffffffffffffffffffffffffffffffffffffff021916908373ffffffffffffffffffffffffffffffffffffffff16021790555087600281905550866003819055508560058190555084600681905550836007819055508260088190555081600960006101000a81548173ffffffffffffffffffffffffffffffffffffffff021916908373ffffffffffffffffffffffffffffffffffffffff1602179055505050505050505050506101ea565b60008082840190508381101515156101e057fe5b8091505092915050565b610bee806101f96000396000f3006060604052600436106100db576000357c0100000000000000000000000000000000000000000000000000000000900463ffffffff1680632f384523146100e0578063313ce567146101035780633197cbb61461012c57806340d6eb26146101555780634f865612146101ca578063575d82e0146101f357806378e979251461021c5780637dc0d1d0146102455780638da5cb5b1461029a578063be999705146102ef578063c42964a514610312578063c78da39a1461033b578063d74d1a0e14610364578063f2fde38b1461038d578063ffa1ad74146103c6575b600080fd5b34156100eb57600080fd5b6101016004808035906020019091905050610454565b005b341561010e57600080fd5b6101166104d7565b6040518082815260200191505060405180910390f35b341561013757600080fd5b61013f6104dc565b6040518082815260200191505060405180910390f35b341561016057600080fd5b6101b4600480803573ffffffffffffffffffffffffffffffffffffffff1690602001909190803573ffffffffffffffffffffffffffffffffffffffff169060200190919080359060200190919050506104e2565b6040518082815260200191505060405180910390f35b34156101d557600080fd5b6101dd6106cf565b6040518082815260200191505060405180910390f35b34156101fe57600080fd5b6102066106d5565b6040518082815260200191505060405180910390f35b341561022757600080fd5b61022f6106db565b6040518082815260200191505060405180910390f35b341561025057600080fd5b6102586106e1565b604051808273ffffffffffffffffffffffffffffffffffffffff1673ffffffffffffffffffffffffffffffffffffffff16815260200191505060405180910390f35b34156102a557600080fd5b6102ad610707565b604051808273ffffffffffffffffffffffffffffffffffffffff1673ffffffffffffffffffffffffffffffffffffffff16815260200191505060405180910390f35b34156102fa57600080fd5b610310600480803590602001909190505061072c565b005b341561031d57600080fd5b6103256107b0565b6040518082815260200191505060405180910390f35b341561034657600080fd5b61034e6107b6565b6040518082815260200191505060405180910390f35b341561036f57600080fd5b6103776107bc565b6040518082815260200191505060405180910390f35b341561039857600080fd5b6103c4600480803573ffffffffffffffffffffffffffffffffffffffff169060200190919050506107c2565b005b34156103d157600080fd5b6103d9610917565b6040518080602001828103825283818151815260200191508051906020019080838360005b838110156104195780820151818401526020810190506103fe565b50505050905090810190601f1680156104465780820380516001836020036101000a031916815260200191505b509250505060405180910390f35b6000809054906101000a900473ffffffffffffffffffffffffffffffffffffffff1673ffffffffffffffffffffffffffffffffffffffff163373ffffffffffffffffffffffffffffffffffffffff161415156104af57600080fd5b6104c48160045461095090919063ffffffff16565b6004819055506104d43382610969565b50565b600281565b60035481565b6000806000806000806000600960009054906101000a900473ffffffffffffffffffffffffffffffffffffffff1673ffffffffffffffffffffffffffffffffffffffff16148061057f5750600960009054906101000a900473ffffffffffffffffffffffffffffffffffffffff1673ffffffffffffffffffffffffffffffffffffffff163373ffffffffffffffffffffffffffffffffffffffff16145b151561058a57600080fd5b6003544210151561059a57600080fd5b6105c56002600a0a6105b76005548a610a4590919063ffffffff16565b610a7890919063ffffffff16565b94506000851115156105d657600080fd5b6106016002600a0a6105f360065488610a4590919063ffffffff16565b610a7890919063ffffffff16565b935061062e6002600a0a61062060075488610a4590919063ffffffff16565b610a7890919063ffffffff16565b925061065b6002600a0a61064d60085488610a4590919063ffffffff16565b610a7890919063ffffffff16565b9150610682826106748587610a9390919063ffffffff16565b610a9390919063ffffffff16565b90506000841115610698576106978985610969565b5b60008311156106ac576106ab8884610969565b5b60008211156106c0576106bf3383610969565b5b80955050505050509392505050565b60075481565b60055481565b60025481565b600960009054906101000a900473ffffffffffffffffffffffffffffffffffffffff1681565b6000809054906101000a900473ffffffffffffffffffffffffffffffffffffffff1681565b6000809054906101000a900473ffffffffffffffffffffffffffffffffffffffff1673ffffffffffffffffffffffffffffffffffffffff163373ffffffffffffffffffffffffffffffffffffffff1614151561078757600080fd5b61079c81600454610a9390919063ffffffff16565b6004819055506107ad333083610ab1565b50565b60065481565b60045481565b60085481565b6000809054906101000a900473ffffffffffffffffffffffffffffffffffffffff1673ffffffffffffffffffffffffffffffffffffffff163373ffffffffffffffffffffffffffffffffffffffff1614151561081d57600080fd5b600073ffffffffffffffffffffffffffffffffffffffff168173ffffffffffffffffffffffffffffffffffffffff161415151561085957600080fd5b8073ffffffffffffffffffffffffffffffffffffffff166000809054906101000a900473ffffffffffffffffffffffffffffffffffffffff1673ffffffffffffffffffffffffffffffffffffffff167f8be0079c531659141344cd1fd0a4f28419497f9722a3daafe3b4186f6b6457e060405160405180910390a3806000806101000a81548173ffffffffffffffffffffffffffffffffffffffff021916908373ffffffffffffffffffffffffffffffffffffffff16021790555050565b6040805190810160405280600581526020017f302e312e3000000000000000000000000000000000000000000000000000000081525081565b600082821115151561095e57fe5b818303905092915050565b600160009054906101000a900473ffffffffffffffffffffffffffffffffffffffff1673ffffffffffffffffffffffffffffffffffffffff1663a9059cbb83836040518363ffffffff167c0100000000000000000000000000000000000000000000000000000000028152600401808373ffffffffffffffffffffffffffffffffffffffff1673ffffffffffffffffffffffffffffffffffffffff16815260200182815260200192505050600060405180830381600087803b1515610a2d57600080fd5b6102c65a03f11515610a3e57600080fd5b5050505050565b60008082840290506000841480610a665750828482811515610a6357fe5b04145b1515610a6e57fe5b8091505092915050565b6000808284811515610a8657fe5b0490508091505092915050565b6000808284019050838110151515610aa757fe5b8091505092915050565b600160009054906101000a900473ffffffffffffffffffffffffffffffffffffffff1673ffffffffffffffffffffffffffffffffffffffff166323b872dd8484846040518463ffffffff167c0100000000000000000000000000000000000000000000000000000000028152600401808473ffffffffffffffffffffffffffffffffffffffff1673ffffffffffffffffffffffffffffffffffffffff1681526020018373ffffffffffffffffffffffffffffffffffffffff1673ffffffffffffffffffffffffffffffffffffffff1681526020018281526020019350505050600060405180830381600087803b1515610ba957600080fd5b6102c65a03f11515610bba57600080fd5b5050505050505600a165627a7a7230582077af93b113f34f75823ca6939ec3d372b0ff2e9a3383947534cf783ec81ccbba0029",
  "source": "pragma solidity ^0.4.13;\n\nimport 'zeppelin-solidity/contracts/math/SafeMath.sol';\nimport 'zeppelin-solidity/contracts/ownership/Ownable.sol';\nimport './interfaces/Token.sol';\n\ncontract CampaignContract is Ownable {\n  using SafeMath for uint256;\n\n  uint256 constant public decimals = 2;\n  uint256 constant private denominator = 10**decimals;\n\n  string constant public VERSION = \"0.1.0\";\n\n  address MCART_TOKEN_CONTRACT;\n\n  uint256 public startTime;\n  uint256 public endTime;\n\n  uint256 public totalBudget = 0;\n  uint256 public rewardToValue;\n\n  uint256 public influencerShare;\n  uint256 public shopperShare;\n  uint256 public oracleShare;\n  address public oracle;\n\n  // event LogAddFunds(address indexed owner, uint256 added, uint256 total, uint256 remaining);\n\n  function CampaignContract (\n    address _mCartToken,\n    uint256 _startTime,\n    uint256 _endTime,\n    uint256 _rewardToValue,\n    uint256 _influencerShare,\n    uint256 _shopperShare,\n    uint256 _oracleShare,\n    address _oracle\n  ) public {\n    //require(_startTime >= now);\n    require(_endTime >= _startTime);\n\n    uint256 sum = _influencerShare.add(_shopperShare).add(_oracleShare);\n    assert(sum <= denominator);\n\n    MCART_TOKEN_CONTRACT = _mCartToken;\n\n    startTime = _startTime;\n    endTime = _endTime;\n\n    rewardToValue = _rewardToValue;\n\n    influencerShare = _influencerShare;\n    shopperShare = _shopperShare;\n    oracleShare = _oracleShare;\n\n    oracle = _oracle;\n  }\n\n  modifier onlyOracle() {\n    require(oracle == 0x0 || msg.sender == oracle);\n    _;\n  }\n\n  function addFunds(uint256 value) public onlyOwner {\n    totalBudget = totalBudget.add(value);\n    mCartTokenTransferFrom(msg.sender, this, value);\n    // LogAddFunds(msg.sender, value, totalBudget, remainingBudget);\n  }\n\n  function removeFunds(uint256 value) public onlyOwner {\n    totalBudget = totalBudget.sub(value);\n    mCartTokenTransfer(msg.sender, value);\n  }\n\n  function verifyPurchase(address influencer, address shopper, uint256 value) public onlyOracle returns (uint256) {\n    require(now < endTime);\n\n    uint256 reward = value.mul(rewardToValue).div(denominator);\n    require(reward > 0);\n\n    uint256 influencerReward = reward.mul(influencerShare).div(denominator);\n    uint256 shopperReward = reward.mul(shopperShare).div(denominator);\n    uint256 oracleReward = reward.mul(oracleShare).div(denominator);\n\n    uint256 actualReward = influencerReward.add(shopperReward).add(oracleReward);\n\n    if (influencerReward > 0) {\n      mCartTokenTransfer(influencer, influencerReward);\n    }\n\n    if (shopperReward > 0) {\n      mCartTokenTransfer(shopper, shopperReward);\n    }\n\n    if (oracleReward > 0) {\n      mCartTokenTransfer(msg.sender, oracleReward);\n    }\n\n    return actualReward;\n  }\n\n  function mCartTokenTransferFrom(address _from, address _to, uint256 _value) internal {\n    Token(MCART_TOKEN_CONTRACT).transferFrom(_from, _to, _value);\n  }\n\n  function mCartTokenTransfer(address _to, uint256 _value) internal {\n    Token(MCART_TOKEN_CONTRACT).transfer(_to, _value);\n  }\n}\n",
  "sourcePath": "/Users/shayan/mavatar/mavatar-contracts-wip/contracts/CampaignContract.sol",
  "compiler": {
    "name": "solc",
    "version": "0.4.18+commit.9cf6e910.Emscripten.clang"
  },
  "schemaVersion": "1.0.1",
  "updatedAt": "2017-11-15T20:02:58.983Z"
}